:020000040800F2
:100000009009002049020008573500086F330008A6
:10001000553500084D1700082D3A00080000000073
:100020000000000000000000000000005B35000838
:100030000118000800000000593500085D3500086F
:1000400063020008630200086302000863020008FC
:100050006302000863020008031800086302000836
:1000600063020008630200086302000863020008DC
:1000700063020008630200086302000863020008CC
:1000800063020008630200081916000863020008F2
:1000900063020008630200086302000863020008AC
:1000A000630200086302000863020008630200089C
:1000B00063020008630200080936000863020008B2
:1000C000630200086302000863020008630200087C
:1000D0006302000863020008213A00086302000876
:1000E000630200086302000863020008630200085C
:1000F000630200086302000863020008630200084C
:10010000630200086302000863020008630200083B
:10011000630200086302000863020008630200082B
:100120005117000863020008630200086302000818
:10013000630200086302000863020008630200080B
:1001400063020008630200086302000863020008FB
:1001500063020008630200086302000863020008EB
:1001600063020008630200086302000863020008DB
:100170006302000863020008630200080000000038
:10018000630200086302000800F002F800F04CF877
:100190000AA090E8000C82448344AAF10107DA45E2
:1001A00001D100F041F8AFF2090EBAE80F0013F0E8
:1001B000010F18BFFB1A43F0010318472C3C000045
:1001C0004C3C0000103A24BF78C878C1FAD85207D6
:1001D00024BF30C830C144BF04680C6070470000C1
:1001E0000023002400250026103A28BF78C1FBD840
:1001F000520728BF30C148BF0B607047662903F023
:100200009785642900F0EA80002070471FB503F04D
:100210008AFD00F07DFC04000020002103F0F6FCC4
:10022000E0601FBD10B510BD00F072FD1146FFF774
:10023000EDFF03F02BFC00F090FD03B4FFF7F2FF9D
:1002400003BC00F0D3FD000009488047094800477F
:10025000FEE7FEE7FEE7FEE7FEE7FEE7FEE7FEE776
:10026000FEE7FEE704480549054A064B70470000D3
:10027000F93500088901000890030020900900204A
:10028000900500209005002053EA020C00F06980E0
:100290002DE9F04B4FF00006002B1FBFB3FA83F59A
:1002A00003FA05F424FA05F65E4012BF1643B2FACB
:1002B00082F502FA05F4C5F120051EBF22FA05FCFD
:1002C00044EA0C04203556EA044C4FEA144418BFA3
:1002D000641C4FF000084FF00009904271EB030CD2
:1002E00039D3002919BFB1FA81F701FA07F6B0FA3C
:1002F00080F700FA07F6C7F120071EBF20FA07FCB7
:1003000046EA0C062037B6FBF4FCA7EB0507103FC6
:1003100007F01F0BCBF120060CFA0BFB2CFA06F6AC
:1003200044BFB3460026202FA4BF5E464FF0000B0B
:100330005BEA060C08BF4FF0010B19EB0B09ABFB96
:10034000027C48EB0608C01B06FB02CC0BFB03CC6F
:1003500071EB0C01C1E70B46024641464846BDE839
:10036000F08B13B54FF000004FF00001AFF30080A9
:10037000BDE81C40704700000FB41CB5084B06AA2E
:100380007B4469460090059800F0A1FB04460020DC
:10039000694600F0AFFB20461CBC5DF814FB000072
:1003A000710700000FB47CB50C0009AA009001D0C1
:1003B0002044401E084B7B4469460190089800F099
:1003C00086FB05461CB10020694600F093FB2846D9
:1003D0007CBC5DF814FB0000450700002DE9F041EE
:1003E0000646002410687529314616A510D0AFF3D3
:1003F0000080002802DA404213A507E031688A072E
:1004000001D512A502E0490704D511A5012401E098
:10041000AFF3008000210A2206F1240709E0B0FBB7
:10042000F2FCB0FBF2F302FB1C00303078541846AB
:10043000491C0028F3D123462A463046BDE8F04146
:1004400000F0D8B8000000002D0000002B000000D4
:10045000200000002DE9F0474FF0000A89460446CD
:10046000C0F820A02046E1688847002876D02528DB
:1004700006D0D4E901219047206A401C2062F1E7B0
:10048000E168204600258847C4F81CA006460027DE
:10049000C4F818A02A2E09D0304603F0F0FA38B379
:1004A00004EB8708303EC8F8186019E059F8041BBF
:1004B000204604EB87029161E1688847012F0646D8
:1004C00018D1E069002820DA25F020051DE0D8F8D1
:1004D000180000EB800006EB40003038C8F8180028
:1004E0002046E1688847064603F0C9FA0028EED1A5
:1004F000012F0AD02E2E08D12046E16888477F1CA4
:100500000646022F45F02005C4DBA069002803DA67
:10051000404245F00105A061E80701D025F0100533
:10052000B6B1A6F14100192802D8203645F400657D
:100530004A463146204625604D46FFF75FFE58B1DA
:10054000012806D0ED1D25F0070000F1080989E714
:1005500004E005F1040985E730468AE7206ABDE832
:10056000F08710B5431C02E010F8011B71B1810740
:10057000FAD14FF0013202C88C1A8C4314EAC2112E
:10058000F9D0C01A0A0603D0C01E10BDC01A10BD93
:100590000A0401D0801E10BD0902FCD0401E10BD0F
:1005A0004FF0000200B5134694469646203922BF0C
:1005B000A0E80C50A0E80C50B1F12001BFF4F7AF57
:1005C000090728BFA0E80C5048BF0CC05DF804EB39
:1005D000890028BF40F8042B08BF704748BF20F8A7
:1005E000022B11F0804F18BF00F8012B70477047A5
:1005F000704770472DE9F0470D46994692460446EC
:1006000000F124080168880604D5E06921F0100192
:10061000216000E00120A84201DD471B00E0002727
:10062000A1697A1902EB0900081AA0612078C006B6
:1006300002D42046AFF30080002608E0D4E901216F
:100640001AF806009047206A401C761C20624E452E
:10065000F4DB2078C0060AD52046AFF3008006E020
:10066000D4E9012130209047206A401C2062381EC6
:10067000A7F10107F4DC07E0D4E9012118F805002F
:100680009047206A401C2062281EA5F10105F3DC7A
:100690002046AFF300802078000602D50220BDE896
:1006A000F0870120FBE770472DE9FF4F0C461E46FF
:1006B0004FF0FF378BB0D2E90001DDF860800A907F
:1006C0008A46C1F30A5505B93D46002108464FF058
:1006D0000000BAF1000F00F4400005DA00EB8000E2
:1006E0004FF4400101EA50004FEA9059B9F1010F6F
:1006F00000DDB9460A9850EA4A000ED044F6105080
:10070000A5F2FF3545432F14B8F1000F1ED07542F6
:10071000291E1EDDC9F100021CE0B8F1010F4FF0E7
:10072000000001D0302103E0F24305E02154401CD9
:10073000B042FBDB30460022002121540B99C1F866
:100740000880C1E900200FB0BDE8F08FBD1B6D1C13
:10075000DEE74A4600DA694206A800F063FA06AB13
:1007600093E8070003AB83E8070050460A9900F0BE
:1007700044FB8DE80700A0F500501F380090039857
:10078000002D0ADD42F21F014A460844002303A956
:100790000390684600F0ADFD09E0A0F500504A4620
:1007A0001F38002303A90390684600F0B7FD8DE8C9
:1007B00007000004000C03D04FF0FF30410800E0B8
:1007C0001046B8F1000F03D00022009215461EE03B
:1007D000751E05D400F0A0F9303262556D1EF9D5B2
:1007E000B3460122084302D000227F1C04E0207897
:1007F000302801D100227F1E002A099784D01DE0F5
:10080000112D07DA00F088F9303262556D1C50EA7C
:100810000102F5D1084302D00098C8B10EE00021D2
:10082000681E05E0235C625C63542254401E491C30
:100830008142F7DBAB46A81B401E0990002004F85C
:100840000B000B98099AC0F80880C0E9002B7AE7E2
:1008500011264FF0000857E72DE9F04F884604466F
:10086000D21D22F0070191B0D1E90001CDE90A01C2
:1008700003F0DDF802460B98C00F01D02D2007E0F1
:100880002068810701D52B2002E0202101EAC00069
:10089000032A099001D0072A05DB0346414620467A
:1008A00000F080F90BE12078800601D5E06900E0D6
:1008B0000620B8F1650F814606D0B8F1660F18D052
:1008C000B8F1670F70D131E00020B9F1110F00903D
:1008D00001DB112301E009F101030AAA01A90CA817
:1008E000FFF7E2FEDDE90C70002609F10105834601
:1008F00047E001204B4600904FF000470AAA01A9AB
:100900000CA8FFF7D1FEDDE90DB00C995D4600267D
:1009100010B909F101000D18B9EB050003D4C0F1BD
:10092000FF3609F10105A5EB09002BE0B9F1010F34
:1009300001DA4FF001090020B9F1110F009048468B
:1009400001DD112300E003460AAA01A90CA8FFF764
:10095000ABFEDDE90C704D4600268346207800078B
:100960000AD4AB4500DA5D4601A8012D04DD41192A
:1009700011F8011C302907D04F4502DA17F1040F96
:1009800004DA012082460FE06D1EEEE7002F02DC44
:10099000ED1B3E4403E0781CA84200DD7D1CB81B23
:1009A00000F1010A4FF000472078000703D4AA4560
:1009B00001DB4FF0FF3A0021B7F1004F0DF1430882
:1009C0008DF8431024D002202B23002F01DA7F4220
:1009D0002D230A21021EA0F1010000DC5FB197FB6C
:1009E000F1FC97FBF1F201FB1C7C17460CF1300C7B
:1009F00008F801CDEEE7A8F1010003702188090590
:100A000001D5452100E06521A0F1010800F8011C95
:100A100009980FA9A1EB0807FF1D00B1012041199A
:100A200001EBEA70A1693844081A401EA0612078E1
:100A3000C00602D42046AFF30080099828B1D4E95B
:100A400001219047206A401C20622078C00622D5F0
:100A50002046AFF300801EE0002E04DBB34502DD2C
:100A600001A8805D00E03020D4E901219047206A90
:100A7000401C2062761CAAF101005FEA000A0AD13C
:100A800000F046F8C0680168405CD4E90121904755
:100A9000206A401C2062281EA5F10105DCDC07E06D
:100AA000D4E9012118F8010B9047206A401C20620C
:100AB000381EA7F10107F3DC2046AFF300800320C6
:100AC00011B041E601694A1C02610878704700B51F
:100AD0008FB0CDE901310021059105497944CDE977
:100AE000031011466846FFF7B5FC0FB000BD0000CB
:100AF000E5FFFFFF0A6802F8010B0A607047D1E9C1
:100B000000239A4202D2531C0B6010707047000001
:100B1000004870475003002030B5B0F10A024FEA98
:100B2000900E71F100034EEA817EB0EB0E0061EB96
:100B300091014FEA101E4EEA017E10EB0E0041EBD0
:100B400011114FEA102E4EEA016E10EB0E0041EB30
:100B500011214FEA104E4EEA014E10EB0E0041EB10
:100B60001141401841F100014FEAD00040EA4170C4
:100B70004FEAD10110EB80054FEA810444EA9074FA
:100B800044EB01046D1944EB0404521BA3414FF0E4
:100B9000000348BF0A3200D530BD401C41F10001BE
:100BA00030BD00002DE9F0411F46044603260168D0
:100BB000072A01F4006004DB08B116A505E016A5BC
:100BC00003E008B115A500E015A521F01000206094
:100BD000A069C01EA0610FB1401EA0612046AFF306
:100BE00000804FB1D4E9012138469047206A401C6B
:100BF0002062C01C206206E0206AFAE7D4E90121E5
:100C000015F8010B9047761EF8D22046AFF300800E
:100C1000BDE8F0814E414E006E616E00494E4600C7
:100C2000696E66002DE9F047814616468AB0354860
:100C300078440DC88DE80D0032487844801C03AC20
:100C40000DC884E80D0041F69B300844372190FB25
:100C5000F1F290FBF1F5A5F1800501FB12041B3CBC
:100C600002D56442012000E00020DFF898A0804611
:100C70000027FA44AAF1BE0A0EE0E0070AD0324685
:100C8000684607EB470101230AEB810100F046FBB0
:100C90008DE8070064107F1C002CEED1194F7F44B3
:100CA000AE3F19E0E80715D007EB04100DF1180A64
:100CB00090E80E008AE80E00C068F04201D1981951
:100CC00008903246012306A903A800F027FB03ABD6
:100CD00083E807006D10641C002DE3D14FF0010381
:100CE00032466946B8F1000F03A802D000F001FBBC
:100CF00001E000F013FBC9E90001C9F808200AB0BF
:100D0000BDE8F0879C3100000048704730030020A8
:100D10007546FFF7F9FFAE4605006946534620F0D9
:100D20000700854618B020B5FFF79CFABDE82040C3
:100D30004FF000064FF000074FF000084FF0000B97
:100D400021F00701AC46ACE8C009ACE8C009ACE84A
:100D5000C009ACE8C0098D46704710B50446AFF332
:100D600000802046BDE81040FFF767BA4FF0013C15
:100D700050F8042B51F8043B9A4221D1A2EB0C030A
:100D8000934313EACC1317D150F8042B51F8043BCA
:100D90009A4215D1A2EB0C03934313EACC130BD167
:100DA00050F8042B51F8043B9A4209D1A2EB0C03F2
:100DB000934313EACC13DBD04FF00000704700BF21
:100DC000D01A01BAB1FA81F101F0180122FA01F04A
:100DD000CB40C1F12001DBB2C0B2C01A2CFA01F342
:100DE000D11A914311EAC311E6D170470149182085
:100DF000ABBEFEE72600020070475FEA400C08BF6A
:100E000091F0000F4FEA8C234FEAC12243EA51517F
:100E10004FEA1C5018BF00F5F0404FEA300018BFF1
:100E200041F000415FEA6C5C00F02980BCF1FF3FBB
:100E300008BF40F080407047130C06BF12044FF00B
:100E4000100C4FF0000C130E04BF12020CF1080C32
:100E5000130F04BF12010CF1040C930F04BF920096
:100E60000CF1020CD30F04BF52000CF1010C11461F
:100E70004FF00002A0F11F00A0EB0C00704711F032
:100E8000004F08BF704731F000413FF4D5AF0B0C65
:100E900006BF09044FF0100C4FF0000C0B0E04BFFE
:100EA00009020CF1080C0B0F04BF09010CF1040C32
:100EB0008B0F04BF89000CF1020CCB0F04BF49005B
:100EC0000CF1010CCCF12003A0EB0C0022FA03F38F
:100ED00002FA0CF241EA030100F10100704720F030
:100EE0007F4C80EA030023F07F47ACEB070303F558
:100EF0007C5300F0004003F1FF032DE980494FEAE5
:100F0000154B09B44FEA144325EA0B4E24EA034873
:100F10000FF2042606EB132749083E785FEA3202F7
:100F200003FB0667C7F5000707FB06F64FEA5437D1
:100F30004FEAD64606F1020607FB066CCCF1005CD0
:100F40004FEA1C472CEA074C07FB06F40CFB06F59E
:100F500004EB15464FEA961634BF00204FF00040D0
:100F60004FEAD13706FB07FC4FEA1C4C0CFB0BF792
:100F7000D21B03FB0CF761EB07010CFB0EF7B0EB88
:100F8000074072EB17420CFB08F734BFA2EB074295
:100F9000B2EB074261EB17414FEA0C444FEA91076D
:100FA00006FB07FC4FEA1C4C0CFB0BF7B0EBC740F1
:100FB00072EB573203FB0CF734BFA2EBC742B2EB24
:100FC000C74261EB57310CFB0EF7B0EBC70072EB79
:100FD00057720CFB08F734BFA2EBC702B2EBC70293
:100FE00061EB5771039F4FEA816141EA921104EB73
:100FF000CC044FEAD1374FEA826206FB07FC42EA93
:1010000090124FEA80604FEA1C4C0CFB0BF7D21B8E
:1010100003FB0CF761EB07010CFB0EF7B0EB07408D
:1010200072EB17420CFB08F734BFA2EB0742B2EB9E
:10103000074261EB17414FEA8C554FEA910704EBE9
:101040009C2406FB07FC4FEA1C4C0CFB0BF7B0EB97
:10105000C74072EB573203FB0CF734BFA2EBC74219
:10106000B2EBC74261EB57310CFB0EF7B0EBC70098
:1010700072EB57720CFB08F734BFA2EBC702B2EB5E
:10108000C70261EB577115EB4C254FEA816141EACC
:1010900092114FEA82624FEAD13742EA901206FB80
:1010A00007FC44F100044FEA80604FEA1C4C0CFB43
:1010B0000BF7D21B03FB0CF761EB07010CFB0EF7E0
:1010C000B0EB074072EB17420CFB08F734BFA2EB02
:1010D0000742B2EB074261EB174115EB1C154FEAD3
:1010E000813141EA92414FEA823242EA90424FEA2C
:1010F00080304FEA0C7644F1000448EA03434EEA9C
:101100000B484FF0000EB2EB080C71EB030724BF45
:10111000624639464EEB0E0E4FF0000B001852415E
:1011200049414BEB0B0BB2EB080C71EB03077BF166
:10113000000B24BF624639464EEB0E0E4FF0000BFB
:101140000018524149414BEB0B0BB2EB080C71EB11
:1011500003077BF1000B24BF624639464EEB0E0EAF
:1011600051EA020718BF46F0010616EB0E7655F15C
:10117000000254F1000103D5BDE88901BDE80088F3
:10118000BDE88901BDE80048B619524141EB0101B3
:10119000A3F10103704780807F7E7D7C7B7A797824
:1011A000777676757473727171706F6E6E6D6C6C2C
:1011B0006B6A6A69686867666665646463636261CE
:1011C0006160605F5F5E5E5D5D5C5C5B5B5A5A594F
:1011D00059585857575656555555545453535252BB
:1011E0005251515050504F4F4F4E4E4D4D4D4C4C13
:1011F0004C4B4B4B4A4A4A4949494848484747475C
:101200004746464645454544444444434343434298
:10121000424242414141002B9C4630D477002BD0C2
:101220001CB54FEA370703B44FF010004FF0100120
:10123000BAF1000F06D0BCF1000FDCBF40F008008F
:1012400040F008014FF000000FBCBDE810400BF16A
:10125000010BBBF1010F08BF5FEA170722BF12F1B4
:10126000010211F101014FF0004143F1000300F0D0
:10127000004043EA00007047F9D35708D0E746EA38
:10128000064613F1400F4FEA16461FDD13F1200FFB
:10129000DFBF16430A46002120335B42BED0C3F1B4
:1012A000200746EA064602FA07F74FEA164646EADC
:1012B0000706C3F1200722FA03F201FA07F721FA21
:1012C00003F14FF0000342EA0702A7E746EA0206ED
:1012D00046EA06464FEA164646EA0106BCBF46EA1B
:1012E0000646360C4FF000034FF000024FF00001AD
:1012F00094E72DE9804C9A46934670B491E8380003
:1013000007C831EA400C48BF34EA430C03D5FFF765
:10131000E6FDFFF780FFF0BCBDE8008C2DE9804CB6
:101320009A46934670B491E8380007C810F0804F91
:1013300008BF13F0804F03D100F005F8FFF76BFFF3
:10134000F0BCBDE8008C20F07F4780EA030023F06A
:101350007F4C07EB0C03A3F57C5300F00040A3F196
:10136000FE0392F0000F00F0B38095F0000F00F044
:1013700077802DE901494FEA11404FEA144621EAEE
:10138000004800FB06FC24EA064708FB06F607FBBC
:1013900008F800FB07F718EB06484CEB164C4FEA31
:1013A000124B18EB07484FEA15464CEB174022EA60
:1013B0000B4E0BFB06FC25EA06470EFB06F607FB69
:1013C0000EFE0BFB07F71EEB064E4CEB164C4FF0D8
:1013D00000061EEB074E4CEB174B18EB0B0840F1C9
:1013E000000018EB0E0B58EB000840F100008F1ABC
:1013F0004FF000013CBFC943661B14BFB5EB040CA2
:1014000000213CBFC943F61B4FEA17444EEA8E0E3B
:1014100027EA04454FEA1C4704FB07622CEA074C05
:1014200005FB07F70CFB05F604FB0CFC16EB074667
:1014300042EB174216EB0C4642EB1C421BEB060636
:1014400058EB0202414146EA9E0601D5BDE80189FA
:10145000B619524141EB0101A3F10103BDE8018935
:101460004FEA14454FEA114724EA054621EA074CA2
:1014700005FB07F406FB07F70CFB06F105FB0CFC6C
:1014800011EB074144EB17444FEA124711EB0C41B3
:1014900044EB1C4422EA074C05FB07F206FB07F766
:1014A0000CFB06F605FB0CFC16EB074642EB17425D
:1014B00016EB0C4642EB1C456A1854F1000148BF7C
:1014C0007047B619524141EB0101A3F10103704786
:1014D00095F0000F37D04FEA11424FEA144721EA46
:1014E000024624EA074C02FB07F106FB07F70CFB58
:1014F00006F402FB0CFC14EB074441EB17414FEAE6
:10150000154714EB0C4441EB1C4125EA074C02FB48
:1015100007F506FB07F70CFB06F602FB0CFC16EBC7
:10152000074645EB174516EB0C4645EB1C421219D6
:1015300051F1000148BF7047B619524141EB01011A
:10154000A3F1010370474FEA14454FEA114724EA1B
:10155000054621EA074C05FB07F106FB07F70CFBE4
:1015600006F24FF0000605FB0CFC12EB074241EBC4
:10157000174112EB0C4251EB1C4148BF70479218C7
:1015800041EB0101A3F10103704710B50146806BE7
:10159000026C12F0500F05D0026CD20626D500F076
:1015A000ECF910BD016C41F40071016401688A68B6
:1015B00012F0405F17D1027EAAB9CA6A12F4700F06
:1015C00002D08A6852050ED44A6822F020024A608E
:1015D000016C21F480710164016CC90403D4016CB5
:1015E00041F00101016400F0B9F910BD806BC26CDB
:1015F000BDE810400846104710B5806B40210164DB
:10160000416C41F00401416400F0B7F910BD10B520
:10161000806B00F0B1F910BD014800F0AFB90000D7
:1016200020000020464910B54A6822F440324A6042
:101630004A6843681A434A6001684A6822F4807223
:101640004A6001684A68036942EA03224A60016805
:101650004A6822F040724A6001684A6883681A4307
:101660004A6001688A6822F400628A6001688A68B8
:10167000C3681A438A60816A6FF07062D142016860
:101680008A6822F070628A6001688A680CD0836A76
:101690001A438A6001688A6822F040528A600168B1
:1016A0008A68C36A1A4301E022F040528A600168E6
:1016B0008A6822F002028A6001688A68037E42EA30
:1016C00043028A6090F82010002901684A680FD010
:1016D00042F400624A6001684A6822F460424A604B
:1016E00001684A68174C436A04EB43331A4301E02C
:1016F00022F400624A600168CA6A22F47002CA6277
:101700000168CA6A838B104C04EB03531A43CA6204
:1017100001688A6822F400728A6001688A6890F819
:10172000303042EA43228A6001688A6822F480628B
:101730008A6001688A68406942EA8020886010BD3A
:101740000023014000E0FFFF0000F0FFFEE7000083
:10175000014800F019BB0000D002002001681823E6
:10176000CAB2103AB2FBF3F2054B6FF30901032A38
:101770009B5CC36500D9091D816508467047000060
:10178000343D000810B5014600208B698A6A4FF08D
:10179000C07453B1B3F5005F15D072B1012A0CD0FB
:1017A000022A0AD0032A09D104E01AB1012A06D07C
:1017B000022A03D1C96AC90100D5012010BDC96A36
:1017C000A142FAD010BD002AF7D0012AF2D0022A95
:1017D000F3D0032AF3D010BD30B50468256825F492
:1017E00080252560046863608368402B036803D00C
:1017F00099600068C26030BD9A600068C16030BD09
:101800007047012000F062BC72B6FEE7704700002E
:1018100078B50024009490F83C20012A19D00122C8
:1018200080F83C200A6807230568092A13D9EE6866
:101830000A3A02EB420293409E43EE600B788A68BC
:101840000A3B03EB43039A400368DD682A43DA60EE
:1018500010E0022078BD2E6902EB420293409E43C5
:101860002E610B788A6803EB43039A4003681D6975
:101870002A431A614A681F23072A13D205686E6B30
:10188000521E02EB820293409E436E630B790A88DC
:101890005B1E92B203EB83039A4003685D6B2A439D
:1018A0005A6327E005680D2A12D22E6BD21F02EB75
:1018B000820293409E432E630B790A88DB1F92B20B
:1018C00003EB83039A4003681D6B2A431A6311E0FC
:1018D000EE6A0D3A02EB820293409E43EE620B7970
:1018E0000A880D3B92B203EB83039A400368DD6ADA
:1018F0002A43DA62164B0568144A9D4206D10D68E8
:10190000122D03D1556845F48005556005689D4248
:1019100018D10B68102B01D0112B13D1536843F44D
:1019200000035360096810290CD10A490A4A096862
:10193000B1FBF2F101EB8101490000E0491E009189
:101940000029FBD180F83C40002078BD00230140F5
:10195000002001401C00002040420F0010B5012172
:10196000034800F0B7FC03490120087010BD0000D7
:1019700000040240000000207047704770B5044624
:1019800000680668456816F0020F05F020012AD0AD
:1019900049B3216CC90603D4216C41F40071216460
:1019A000816811F0405F17D1217EA9B9C16A11F495
:1019B000700F02D0816849050ED4416821F02001E2
:1019C0004160206C20F480702064206CC00403D43B
:1019D000206C40F0010020642046FFF7BFFF216823
:1019E0006FF01200086016F0040F05F0800132D08D
:1019F00089B3206CC00603D4206C40F400502064EE
:101A00002068816811F4401F1ED1816B11F4401FC2
:101A100002D08168490517D44168490514D481680A
:101A200011F0405F10D1217E71B9416821F0800131
:101A30004160206C20F480502064206CC00503D4E9
:101A4000206C40F0010020642046FFF7DFFE216893
:101A50006FF00C00086016F0010F05F040010FD088
:101A600071B120680068C0070AD0206C40F4803053
:101A70002064204600F043F821686FF00100086000
:101A800016F0200F05F080610ED000290CD0606C9C
:101A900040F00200606420686FF020050560204679
:101AA000FFF76BFF2068056070BD70B504004FF054
:101AB000000503D0206C002610B107E0012070BDA6
:101AC000204600F01DF8666484F83C60206CC00677
:101AD00010D4206C20F4885040F00200206420468E
:101AE000FFF7A0FD6664206C20F0020040F00100CA
:101AF000206400E0012584F83C60284670BD7047F2
:101B000038B505460068184988422BD1174800218E
:101B1000026842F4807202600068164C00F4807023
:101B200000901348C4E900010015A160C4E9031046
:101B3000400060618000A0614011C4E907012046B7
:101B4000616200F0F1F908B1FFF75EFEAC630022BC
:101B500011461220A56300F039FCBDE83840122080
:101B600000F026BC38BD000000200140443802408F
:101B700010640240D0020020F8B50E460021044651
:101B8000009190F83C0013460A46012807D0012036
:101B900084F83C0020688568ED0702D011E002203F
:101BA000F8BD856845F0010585604048404D0068F6
:101BB000B0FBF5F000EB400000E0401E0090002874
:101BC000FBD120688568ED0503D5856825F480750F
:101BD000856020688568ED075DD0226C40F2016564
:101BE000AA4342F4807222644068400505D5206C07
:101BF00020F4005040F480502064206CC00404D5D0
:101C0000606C20F00600606400E0616484F83C10C1
:101C1000A16B2948274DC863A16B28480864A16BB4
:101C20002748C86421686FF0220008602068416876
:101C300041F0806141602068816841F48071816079
:101C4000216832464C31A06B00F0D8F90246686832
:101C50001C49C006206806D0884224D1816811F052
:101C6000405F13D01FE08842F8D0174B984203D151
:101C7000D1F80433DB06F1D0144B984213D1D1F8DC
:101C8000041301F01F011029E8D30CE0816841F032
:101C90008041816007E0206C40F010002064606C9F
:101CA00040F0010060641046F8BD00001C000020F8
:101CB00040420F00002301408B1500080F1600085A
:101CC000F9150008002001400021014000220140D8
:101CD0002DE9F0410446876D00F00AFB064694F8B2
:101CE00035000025022806D08020606584F8345035
:101CF0000120BDE8F0812068016821F01601016033
:101D00002068416921F080014161206C08B9A06C14
:101D100020B12068016821F0080101602068016895
:101D200021F0010101600CE000F0E2FA801B0528BF
:101D300007D920206065032084F8350084F83450EA
:101D4000D7E720680068C007EED194F85C103F2008
:101D50008840B860012084F8350084F834500020B1
:101D6000C7E790F83510022903D080214165012092
:101D70007047052180F835100068016821F00101E5
:101D800001600020704700002DE9F84304464FF041
:101D90000009CDF8009063484FF41651A56D006816
:101DA000B0FBF1F72E6894F85C10082000FA01F1FE
:101DB00031420FD021680A6852070BD50A6822F019
:101DC00004020A6094F85C108840A860606D40F0DE
:101DD0000100606594F85C104FF0010808FA01F00A
:101DE000304208D021684969090604D5A860606DB1
:101DF00040F00200606594F85C1004208840304296
:101E000008D021680968890704D5A860606D40F092
:101E10000400606594F85C1010208840304218D0AF
:101E200021680968090714D5A8602068016849037A
:101E300004D50068000308D5A16C07E00168C90556
:101E400003D4016821F008010160216C09B120462A
:101E5000884794F85C1020208840304231D02168B7
:101E60000968C9062DD5A86094F8350005282068B2
:101E7000016806D0490347D5006800031DD4616C92
:101E80001CE021F0160101602068416921F0800109
:101E90004161206C08B9A06C20B12068016821F074
:101EA0000801016094F85C103F208840A86084F825
:101EB000358084F83490216D1FE0E16B09B1204634
:101EC0008847606D00282BD0606DC00714D00520B6
:101ED00084F835002068016821F001010160009854
:101EE000401C0090B84203D820680068C007F6D1B3
:101EF00084F8358084F83490E16C002910D001B06A
:101F00002046BDE8F04308470168C905D5D40168FB
:101F100021F01001016084F8358084F83490CCE71A
:101F2000BDE8F8831C0000202DE9F041044600F0D4
:101F3000DFF906465CB1022084F83500002584F8FC
:101F400034502068016821F0010101600DE001209A
:101F5000BDE8F08100F0CCF9801B052805D92020D0
:101F60006065032084F83500F2E720680068C00748
:101F7000F0D12268116820480140D4E901031843D8
:101F8000D4E903363343184363691843A3691843FC
:101F9000E3691843236A18430843616A042903D19B
:101FA000D4E90B1319430843106020684069666A3E
:101FB00020F0070130460E43012704280CD1A06A07
:101FC0000643E06A40B12046FFF7DCFB20B1402029
:101FD000606584F83570BAE7206846612046FFF7EF
:101FE000BDFB94F85C203F2191408160656584F8D9
:101FF00035700020ACE700003F8010F02DE9F04183
:102000000446866D90F83400002501280DD001208B
:1020100084F8340094F835700020012F07D084F83C
:10202000340002252846BDE8F0810220FBE70227A4
:1020300084F8357060652046FFF7CEFB94F85C109D
:102040003F208840B0602068016841F016010160BF
:10205000206C20B12068016841F00801016020680F
:10206000016841F001010160DCE7000010B50128C2
:102070001BD10E484178002917D1012141700C482D
:1020800000F06AFD0A480BA19030FEF775F9084888
:102090009030FEF766FA0649642382B29031BDE8BB
:1020A0001040A1F1480001F011B910BD000000205E
:1020B000B00000204D6561737572656D656E7420AA
:1020C000535441525445440D0A000000044910B5D0
:1020D0000A68024202D00860FFF7C8FF10BD000086
:1020E000143C01402DE9F84FDFF8BCA10022012586
:1020F00003264FF00F090AF1040BAAF1040E00BFEA
:102100000B6805FA02F42340A34270D10F7907F05F
:102110000307012F01D0022F16D187684FEA42082A
:1021200006FA08FC27EA0C07D1F80CC00CFA08FCE8
:102130004CEA070CC0F808C04768A7430C79C4F301
:10214000001494403C4344600C79E443A4070AD053
:10215000C4684FEA420C06FA0CF7BC438F6807FAD2
:102160000CF72743C7600C7904F00304022C12D14A
:10217000D40800EB840CDCF820405707FF0E09FA66
:1021800007F824EA0804D1F8108008FA07F848EAAA
:102190000408CCF8208004684FEA420C06FA0CF7D9
:1021A000BC430F7907F0030707FA0CF727430760D2
:1021B0004C6814F4403F70D03C4C276847F480478B
:1021C0002760246822F0030704F480440094384C0C
:1021D00007EB040CDCF8084897074FEA177809FA70
:1021E00008F7BC43334FB84202D1002724E054E043
:1021F000314FB84201D101271EE0304FB84201D122
:10220000022719E02E4FB84201D1032714E02D4FC9
:10221000B84201D104270FE02B4FB84201D1052766
:102220000AE02A4FB84201D1062705E0284FB842FC
:1022300001D1072700E0082707FA08F72743CCF861
:102240000878DAF800405746D1F804C09C435FEAAA
:10225000CC2C00D51C433C60DBF800405F46D1F835
:1022600004C09C435FEA8C2C00D51C433C60DEF824
:1022700000407746D1F804C09C435FEA8C3C00D50F
:102280001C433C60084F083F3C68D1F804C09C43A5
:102290005FEACC3C00D51C433C60521C102AFFF482
:1022A0002FAFBDE8F88F0000083C014044380240E1
:1022B00000300140000002400004024000080240DB
:1022C000000C0240001002400014024000180240BE
:1022D000001C0240426921EA02030A4043EA02412B
:1022E000816170470AB1816170470904FBE7000012
:1022F0000148806870470000100000200248816893
:102300000278114481607047100000200B4810B51E
:10231000016841F400710160016841F4806101606D
:10232000016841F480710160032000F06FF80F2014
:1023300000F006F800F024F8002010BD003C024038
:1023400070B50D4D04464FF47A712878B1FBF0F06A
:102350000A490968B1FBF0F000F00CFB48B9102CF9
:1023600007D200222146501E00F030F800206C6099
:1023700070BD012070BD0000100000201C00002076
:102380000A4808B5016841F480410160006800F422
:10239000804000900548001F016841F080510160B5
:1023A000006800F08050009008BD000044380240F2
:1023B000002809DB00F01F02012191404009800044
:1023C00000F1E020C0F8001170470000F0B40E4B9F
:1023D0001B680C46C3F30223C3F10705042D00D983
:1023E0000425191D072901D2002300E0DB1E012668
:1023F00006FA05F1491E214099409E40761E16407E
:102400003143F0BC01F02BBB0CED00E0064900F0BD
:10241000070208684FF6FF03184040EA0220034A0B
:1024200010430860704700000CED00E00000FA0562
:102430002DE9F0470E46050065D0DFF81481D8F885
:102440000000F7B200F00700B04207D288F8007031
:10245000D8F8000000F00700B04254D128683D4C85
:10246000810712D5400703D5206840F4E050206072
:102470002878000703D5206840F460402060206879
:10248000A96820F0F000084320602878C0072DD00C
:10249000304968680839012812D0022813D003286F
:1024A00011D00968890700292DDA216821F003017C
:1024B00001432160FFF71CFF814641F2883A0EE09C
:1024C00009688903EFE709688901ECE7FFF710FF66
:1024D000A0EB0901514502D90320BDE8F08720682F
:1024E000696800F00C00B0EB810FEFD1D8F8001054
:1024F000404601F00701B14207D90770006800F0BB
:102500000700B04201D00120E7E72878400705D551
:102510002068E96820F4E05008432060287800072C
:1025200006D52068296920F4604040EAC100206097
:1025300000F038F82168084AC1F30311515CC84023
:102540000649086006480068FFF7FAFE0020C4E765
:10255000003C0240083802403C3D00081C000020BE
:10256000140000200448054900680968044AC1F3C2
:102570008221515CC84070471C000020083802408E
:102580004C3D00080448054900680968044AC1F345
:102590004231515CC84070471C000020083802409E
:1025A0004C3D0008154810B5006810F00C021448A6
:1025B00013D01449042A0FD0082A0ED10F4C241F1F
:1025C0002268236802F03F025B0207D52068C0F34F
:1025D0008810A0FB010106E0084610BD2168C1F388
:1025E0008811A1FB00010023FDF74EFE2168C1F315
:1025F0000141491C4900B0FBF1F010BD0838024010
:102600000024F40040787D012DE9F84F04006ED0DD
:102610002078DFF84C93C007A9F104054AD009F1EE
:1026200004000168C1F38101012908D00068C0F3EA
:10263000810002280AD1D9F80000400206D5286896
:10264000800337D560680028E1D033E06068B0F5DA
:10265000803F10D0B0F5A02F286810D020F4803033
:102660002860286820F4802028606068A8B1FFF7FF
:102670003FFE06460DE0286840F48030F4E740F461
:1026800080202860F7E700BFFFF732FE801B642838
:1026900073D828688003F7D50CE0FFF729FE0646BB
:1026A00005E000BFFFF724FE801B6428F0D82868EF
:1026B0008003F7D42078DFF8AC8280074FF0000A5F
:1026C0003ED5A748001D016811F00C0F08D0006826
:1026D000C0F3810002280BD1D9F80000400207D4D2
:1026E0002868800716D5E068012800D112E033E1A0
:1026F000E068B8B10120C8F80000FFF7F9FD064610
:1027000005E000BFFFF7F4FD801B0228C0D8286851
:102710008007F7D52868216920F0F80040EAC10059
:1027200028600DE0C8F800A0FFF7E2FD064604E0CF
:10273000FFF7DEFD801B02281FD828688007F7D42A
:102740002078000722D5864F87486169703771B1BC
:1027500001210160FFF7CCFD064604E0FFF7C8FD4C
:10276000801B022809D838688007F7D50EE0C0F82A
:1027700000A0FFF7BDFD064605E082E0FFF7B8FDCB
:10278000801B02287DD838688007F7D4207840075E
:1027900068D5DFF8CCB100270BF13C0BDBF800006B
:1027A000C0000BD4DBF8001041F08051CBF80010D2
:1027B000DBF80000012700F0805000906B4E30687D
:1027C000C00510D4306840F480703060FFF790FD91
:1027D000009005E0FFF78CFD0099401A022850D8C0
:1027E0003068C005F6D55E4EA0686C3601280FD063
:1027F0000528306810D020F001003060306820F0EB
:1028000004003060A068B8B1FFF772FD00900FE0DF
:10281000306840F00100F4E740F004003060F7E772
:10282000FFF766FD0099411A41F28830814266D86F
:1028300030688007F4D50EE0FFF75AFD009007E0FE
:10284000FFF756FD0099411A41F28830814256D86F
:1028500030688007F4D42FB1DBF8001021F08051EC
:10286000CBF80010A069C8B33D49091D0968C1F340
:10287000810102294AD00228504607D0C8F86000DA
:1028800000E03CE0FFF734FD04463BE04746C8F873
:102890006000FFF72DFD064605E000BFFFF728FDAD
:1028A000801B02282BD828688001F7D4D4E90701BF
:1028B0000843A16A2E4A490802EB0141626A41EAD3
:1028C0008211084394F82C1040EA0161C9F8001005
:1028D00001203866FFF70CFD044606E03EE000BF2D
:1028E000FFF706FD001B022809D828688001F7D5EC
:1028F00034E000BFFFF7FCFC001B022802D90320D4
:10290000BDE8F88F28688001F4D427E00128F7D0CB
:10291000D9F80000E26900F4800191421CD1226ADA
:1029200000F03F01914217D147F6C071626A014041
:10293000B1EB821F10D1A26A4FF0FF3300F4403197
:1029400003EB5202B1EB024F06D194F82C1000F0C9
:102950007060B0EB016F01D00120D1E70020CFE71C
:102960000438024000004742800E47420070004099
:102970000000FFFF10B5401EB0F1807F01D30120A1
:1029800010BD4FF0E02460610F21601701F067F87F
:102990000020A06107202061002010BD7047704713
:1029A00070B590F83C20012A32D0012480F83C40D8
:1029B000022280F83D2003685A689D6822F0700664
:1029C0000A6832435A60134B02689A4214D0B2F13B
:1029D000804F11D0104B9A420ED0104B9A420BD020
:1029E0000F4B9A4208D00F4B9A4205D00E4B9A4299
:1029F00002D00E4B9A4204D1496825F08003194356
:102A0000916080F83D40002180F83C10084670BD80
:102A1000022070BD0000014000040040000800409A
:102A2000000C00400004014000400140001800403C
:102A300010B5040003D094F83D0010B107E0012068
:102A400010BD002084F83C00204600F01FF8022052
:102A500084F83D00211D206800F0DCFD012084F891
:102A6000460084F83E0084F83F0084F8400084F873
:102A7000410084F8420084F8430084F8440084F85C
:102A8000450084F83D00002010BD000008B5114A43
:102A900001681148914208D1016841F002010160CA
:102AA000006800F00200009008BD0C4A9142FBD182
:102AB000016841F0040101600068002200F0040098
:102AC000009001211E20FFF781FCBDE808401E2078
:102AD000FFF76EBC00040040403802400008004090
:102AE00090F83D10012901D001207047022180F8A3
:102AF0003D1000681149884214D0B0F1804F11D0C8
:102B00000F4988420ED00F4988420BD00E498842A7
:102B100008D00E49884205D00D49884202D00D499F
:102B2000884204D1816801F00701062903D00168B9
:102B300041F00101016000207047000000000140E9
:102B40000004004000080040000C00400004014068
:102B5000004001400018004090F83D10012901D0CC
:102B600001207047022180F83D100168CA6842F0D8
:102B70000102CA6000681149884214D0B0F1804F48
:102B800011D00F4988420ED00E4988420BD00E4911
:102B9000884208D00D49884205D00D49884202D0AC
:102BA0000C49884204D1816801F00701062903D04D
:102BB000016841F001010160002070470000014000
:102BC0000004004000080040000C004000040140E8
:102BD00000400140001800400168CA6822F001026C
:102BE000CA6001680A6A41F211131A4207D10A6ADF
:102BF0009B101A4203D10A6822F001020A600121E7
:102C000080F83D100020704770B5044690F83C00F5
:102C10000025012817D0012684F83C60022084F8A2
:102C20003D002068826822F0770222F47F428260B1
:102C30000868502838D00DDC20284FD005DC90B330
:102C4000102811D14AE0022070BD302846D040281B
:102C50000AD13BE060282FD070280DD0B0F5805FFE
:102C600003D0B0F5005F12D0012584F83D6000204C
:102C700084F83C00284670BDCB68D1E9012120686A
:102C800000F030FD2068816841F0770109E0CB68F1
:102C9000D1E90121206800F025FD2068816841F418
:102CA00080418160E1E719E0CA684968206800F066
:102CB0002BFD5021206806E0CA684968206800F0B2
:102CC00034FD6021206800F017FDCEE7CA6849682E
:102CD000206800F019FD40212068F4E722680146D1
:102CE0001046F0E770472DE9F04104460068C668D9
:102CF00005694FF00007A90713D5B10711D5F91ED3
:102D0000016101202077206880698007204602D079
:102D1000FFF7E8FF04E000F07EF8204600F07CF8C2
:102D20002777680716D5700714D521686FF004005F
:102D30000861022020772068806910F4407F2046D7
:102D400002D0FFF7CFFF04E000F065F8204600F066
:102D500063F82777280715D5300713D521686FF05A
:102D600008000861042020772068C0698007204699
:102D700002D0FFF7B7FF04E000F04DF8204600F066
:102D80004BF82777E80616D5F00614D521686FF0C2
:102D900010000861082020772068C06910F4407F87
:102DA000204602D0FFF79EFF04E000F034F82046F2
:102DB00000F032F82777E80708D0F00706D021683E
:102DC0006FF001000861204600F028F8280608D5B9
:102DD000300606D521686FF0800008612046FFF7B5
:102DE000DDFD680608D5700606D521686FF0400045
:102DF0000861204600F056F8A8060AD5B00608D5A6
:102E000021686FF0200008612046BDE8F041FFF71F
:102E1000C6BDBDE8F08170477047000010B500687E
:102E20001549884226D1154C002060701448FFF7E0
:102E3000D3FE1449A07894ED010A01EB8001401CF7
:102E400081ED000AA0709FED100A0D4884ED010A83
:102E50000EA19030FDF790FA09489030FDF781FB04
:102E60000749642382B29031BDE81040A1F14800C7
:102E700000F02CBA10BD0000000800400000002047
:102E8000B00000200802002000007AC44D65617384
:102E90007572656D656E742053544F505045440DE6
:102EA0000A0000007047704770470000F8B50168DD
:102EB00004460868CA684B6910F00F0F4FF0000510
:102EC00059D003F0010602F49077374365D0C1076B
:102ED00005D0D10503D5616C41F001016164410762
:102EE00005D5D90703D0616C41F002016164810707
:102EF00005D5D90703D0616C41F004016164010775
:102F000007D502F02001314303D0616C41F0080184
:102F10006164616C00293AD0800604D5900602D520
:102F2000204600F042FC20684069616CC0F38010CC
:102F3000090700D460B3204600F010FC2068406907
:102F4000400621D52068143050E8001F21F04001D0
:102F500040E80012002AF5D1E06BA8B17249016582
:102F6000E06BFEF7FEFE002811D0E06B016D01B0B2
:102F7000BDE8F040084783060FD593060DD52046DF
:102F8000BDE8F84000F011BC2046FFF78DFFF8BD0A
:102F90002046FFF789FF6564F8BD266B2023012ECC
:102FA0007ED1C6067CD5D6067AD5086848680090DA
:102FB00048694FF0020640064DD5E26B1068406844
:102FC0004FF480770004000C3AD0A18D814237D9AC
:102FD000E085D069B8422DD020680C3050E8001F41
:102FE00021F4807140E80012002AF5D120681430E5
:102FF00050E8001F21F0010140E80012002AF5D13D
:103000002068143050E8001F21F0400140E8001211
:10301000002AF5D184F84230256320680C3050E84E
:10302000001F21F0100140E80012002AF5D1E06BEA
:10303000FEF74EFE6663A08DE18D401A81B206E078
:10304000A18D8142A8D1D069B842A5D1666320463E
:10305000FFF729FFF8BDA08DE18D401A81B2E08D08
:103060000028F7D00029F5D020680C3050E8002F58
:1030700022F4907240E80027002FF5D12068143028
:1030800050E8002F22F0010240E80027002FF5D180
:1030900084F84230256320680C3050E8002F00E0AF
:1030A00006E022F0100240E80023002BF3D1CDE728
:1030B00005062BD5150629D594F841002128C9D13C
:1030C000A068B0F5805F01D12069B0B1206A411CD1
:1030D0002162216800784860E08C401E0004000CEA
:1030E000E084B7D12068C16821F08001C160206808
:1030F000C16841F04001C160F8BD206A0088C0F39A
:1031000008004860206A801C2062E5E74006F3D58D
:103110005006F1D5CA68204622F04002CA6084F801
:10312000413000F023F9F8BD4F37000870B50400B6
:1031300004D094F84100002510B106E0012070BDD4
:1031400084F84050204600F023F8242084F8410001
:103150002068C16821F40051C160204600F086FB60
:103160002068016921F4904101612068416921F0E2
:103170002A0141612068C16841F40051C160656461
:10318000202084F8410084F842006563002070BD6F
:1031900010B586B0044614216846FDF701FA1749B8
:1031A0002068884228D116480021026842F4003283
:1031B0000260006800F40030059011481038026881
:1031C00042F001020260006800F0010005900C204E
:1031D00000900220CDE90101032003900720049014
:1031E00069460848FEF77EFF002211462620FFF7B9
:1031F000EDF82620FFF7DCF806B010BD00440040D3
:10320000403802400000024090F84230202B01D0AC
:103210000220704721B11AB10023036300F0ACBB58
:10322000012070477CB500681A49884231D11A4D97
:10323000E878522805D0722803D00A2801D00D283A
:103240001ED10024154E18E056F8240000F0FAFCB8
:10325000CDE900011148621C11A1C838FDF78CF8B6
:103260000E48C838FDF77DF90C4982B2C83964238D
:10327000A1F1480000F02AF8641CA8788442E3DB3E
:1032800002B00549BDE870400122C91C0E48FFF795
:10329000BBBF7CBD004400400000002008020020AD
:1032A00053657373696F6E202564204D61782054D7
:1032B000656D7065726174757265203D20252E32D2
:1032C00066430D0A00000000F80000202DE9F843D5
:1032D000044690F84100984616460D46202802D034
:1032E0000220BDE8F88385B17EB100206064212012
:1032F00084F84100FEF7FCFFA6848146E684A068BE
:103300002027B0F5805F02D003E00120E9E72069C3
:1033100010B12E4600250EE000260CE0802120464C
:1033200000F045FBA8B9C6B116F8010B216848604A
:10333000E08C401EE084E08C4B464FF00002CDF85C
:1033400000800028EAD14FF04001204600F02FFB1A
:1033500040B184F841700320C3E735F8020BC0F395
:103360000800E3E784F841700020BAE77047FEE701
:103370007FB500211C48009101910291194A0391E7
:10338000026001244FF480320461C0E90121047617
:1033900080F820101203C26202255210C5618262B9
:1033A000C16080F830404461FEF77FFB08B172B61F
:1033B000FEE71120CDE90004072469460A4802947B
:1033C000FEF726FA08B172B6FEE71020CDE9000537
:1033D000694602940448FEF71BFA002801D072B631
:1033E000FEE77FBD002001402000002070B586B0C0
:1033F00014216846FDF7D4F81E480025016841F005
:1034000080010160016801F080010591016841F0CF
:1034100001010160016801F001010591016841F0BD
:10342000020101600068144E00F0020005900022C5
:1034300001213046FEF756FF01244FF48810CDE9F4
:1034400000400220029069460C48FEF74BFE0094B3
:10345000CDE90145694630460395FEF743FE00225B
:1034600011460620FEF7B2FF0620FEF7A1FF06B0C8
:1034700070BD0000303802400004024000000240ED
:1034800010B586B000241848009401940294039467
:1034900004941449059401601721C0E901144EF603
:1034A0005F21C0E9031480218161FFF7C1FA08B1EF
:1034B00072B6FEE74FF48050009069460A48FFF765
:1034C000A3FB08B172B6FEE72020CDE9040404A9ED
:1034D0000548FFF765FA002801D072B6FEE706B08E
:1034E00010BD0000000400406800002010B586B048
:1034F00000241748009401940294039404941349FF
:103500000594016044F29F11C0E9011442F20F7169
:10351000C0E903148461FFF78BFA08B172B6FEE7C5
:103520004FF48050009069460948FFF76DFB08B1E1
:1035300072B6FEE7049404A905480594FFF730FA33
:10354000002801D072B6FEE706B010BD00080040AA
:10355000B0000020FEE7FEE770477047FEF7CEBEE2
:1035600030B593B030216846FDF71AF814210CA845
:10357000FDF716F81E480025016841F080510160F2
:10358000006800F0805011901A48016841F48041B1
:1035900001600068022400F4804011900120009036
:1035A000000401908001CDE90640192008904FF4F5
:1035B000A870CDE9090404200B906846FFF724F8B1
:1035C00008B172B6FEE70CA90F2081E831004FF474
:1035D000A0500F904FF48050109005210CA8FEF7DA
:1035E00027FF002801D072B6FEE713B030BD0000FF
:1035F00040380240007000400248016841F4700108
:103600000160704788ED00E00148FFF76CBB0000E7
:10361000B0000020F0B50268274B284D284E294FF6
:10362000294C4FF0804C984209D0604507D0A84201
:1036300005D0B04203D0B84201D0A04204D122F05C
:10364000700E4A6842EA0E0298421BD0604519D0BB
:10365000A84217D0B04215D0B84213D0A04211D022
:103660001A4DA8420ED01A4DA8420BD0194DA842AF
:1036700008D0194DA84205D0184DA84202D0184DC7
:10368000A84203D122F44075CA682A434D6922F04A
:1036900080022A438D68C5620D688562984201D018
:1036A000A04201D109690163016841F00401016090
:1036B000012141610260F0BD0000014000040040B2
:1036C00000080040000C00400004014000400140A0
:1036D000004401400048014000180040001C004028
:1036E0000020004010B5846842EA032224F47F449D
:1036F0000A432243826010BD826822F070020A43AE
:1037000042F007018160704710B5036A046A24F033
:1037100001040462846924F0F00444EA021423F0F2
:103720000A020A438461026210BD10B5036A046A8A
:1037300024F010040462846923F0A00324F470448C
:1037400044EA023243EA01118261016210BD10B500
:10375000806B0021C185FFF7A7FB10BD01680C310C
:1037600051E8002F22F4907241E80023002BF5D19C
:103770000168143151E8002F22F0010241E80023D2
:10378000002BF5D1016B012909D101680C3151E8F9
:10379000002F22F0100241E80023002BF5D1202158
:1037A00080F8421000210163704708B590F842107C
:1037B000222901D0022008BD82684FF480539A422A
:1037C00001D1016921B1816A9A421BD04AB10AE054
:1037D0000268816A5268C2F308020A80816A891C01
:1037E00008E0026972B10268526802F07F020A7052
:1037F000816A491C8162C18D491E0904090CC18579
:1038000003D01BE002685268F1E70168CA6822F041
:103810002002CA600168CA6822F48072CA60016826
:103820004A6922F001024A61202180F842100021F9
:103830004163026B012A03D0FFF7F4FC002008BDAE
:10384000016301680C3151E8002F22F0100241E8B9
:103850000023002BF5D101680A68D20602D50A6858
:1038600049680091818DFFF71EFBE7E770B50446BC
:1038700000680169E26821F4405111430161216946
:10388000A068E26908436169114308432168CA6876
:1038900049F20C639A430243CA6020684169A269F5
:1038A00021F440711143416131492068884202D0BE
:1038B0003049884202D1FEF765FE01E0FEF752FE74
:1038C000E2690023192164253226B2F5004F6268AF
:1038D00028D0A0FB0101930F9200FCF7D5FC014614
:1038E000B0FBF5F06FF01802504301EB800006EBDF
:1038F0000010B0FBF5F000F0F002B1FBF5F002EBC8
:103900000012B1FBF5F06FF01803584301EB800093
:1039100006EB0010B0FBF5F000F00F00216810443A
:10392000886070BDA0FB010192185B41FCF7ACFC04
:103930000146B0FBF5F00201B1FBF5F06FF01803A2
:10394000584301EB800006EBC000B0FBF5F000F03F
:10395000F80002EB4002B1FBF5F0584301EB8000A8
:1039600006EBC000B0FBF5F000F00700D6E7000062
:10397000001001400014014081628285C28500214F
:103980004164222180F84210016921B10168CA68AE
:1039900042F48072CA6001684A6942F001024A61D9
:1039A0000068C16841F02001C160002070472DE926
:1039B000F843984617460D460446089E24E0701CBE
:1039C00022D0FEF795FCA0EB0800B0421AD8CEB189
:1039D0002068C168490717D5802D15D0402D13D018
:1039E0000168C94309070FD40168002540680090A9
:1039F0002046FFF7B3FE0820606484F840500120A1
:103A0000BDE8F8830320FBE72068006835EA000082
:103A100004D00020B842D2D00020F1E70120F9E71D
:103A20000148FFF743BA0000F8000020FEE703B4A6
:103A300001984100009850EAC12018BF04204A0DA7
:103A400018BF40F0010040F2FF72B2EB515F08BFB7
:103A500040F00200012808BF052002B070470907A6
:103A6000090E002804DB00F1E02080F80014704704
:103A700000F00F0000F1E02080F8141D704730388E
:103A80000A2801D201207047002070471CB5FEF7BC
:103A90003DFCFFF765FD51480025016841F48001B8
:103AA000016000682A4600F4800000902946382012
:103AB000FEF78CFC3820FEF77BFCFFF797FCFFF746
:103AC00057FCFFF7DDFC4748454901604FF4E13101
:103AD000C0E901150C21C560C0E904518561C561CB
:103AE000FFF724FB08B172B6FEE701223E493D48CC
:103AF000FFF78AFBFFF7FAFC3A489038FEF7F0FF31
:103B0000394938480222491DD838FEF735F8364C75
:103B1000E41E60780028FCD020780028F9D03348D3
:103B2000008800EE100A3048401DB8EE401A0188A7
:103B3000408800EE101AB8EE400AC1EE000A9FED70
:103B40002C0A60EE800A80EE801A00EE100A2748E8
:103B5000B8EE400A001D008861EE000A00EE100A6F
:103B60002248801CB8EE401A008800EE100AB8EE19
:103B7000400A31EE401A00EE100AB8EE400A30EE6C
:103B8000C00ADFED1C0A20EE200AC0EE010AB3EEE7
:103B90000E0A30EE800A84ED030AD4ED010AB4EE79
:103BA000E00AF1EE10FA01DD84ED010A72B610EEC2
:103BB000100A00F047F8CDE900010A480EA2C8211A
:103BC0004830FCF7EFFB074982B2642348310548CF
:103BD000FFF77CFB62B625709BE70000303802409F
:103BE00000440040F8000020030000202A7AFF1F54
:103BF000333353400000A04254656D7065726174A8
:103C00007572653D252E3266430D0A0010B50029F8
:103C10000AD00878002807D005487844FDF7A6F8B0
:103C2000002801D0002010BD0248784410BD0000DB
:103C3000EE010000E60100000808A0F500114FEABF
:103C40003101704743004FEAD30C4FEA3C0C43402C
:103C50001FBF40070CF1605113F0FE4F70471CF07E
:103C6000006F03D100200CF0004170470CF00043BE
:103C700043EA507010B540EACC0000F00EF800BFE7
:103C8000000000924FEA0001FFF7D6BF4FF000415D
:103C90004FF00000A1F5002170470EF1020E2EF04A
:103CA000030E5EF8044B244204D44FEA4102B2F101
:103CB0007F4F11D84FEA4003B3F17F4F0CD80ED19C
:103CC0004FEAD07CB2F17F4F0CEB4C0C0CF1020CA4
:103CD00008BF4CEBD17C04E04FF0080C01E04FEA48
:103CE000D17C0CEB4C0324FA03F404F00704B4F188
:103CF000040C06D20EEB840CBDE810404CF0010C15
:103D00006047DFE80CF0070802024FF00040A0F522
:103D1000800010BD0846420018BFD2F1807288BFF3
:103D200000F0004010BD4FF04070E1EE100A704707
:103D3000FCF792BD000610160006101600000000E9
:103D4000000000000102030406070809000000004B
:103D50000102030402400000000000A00000000077
:103D600005400000000000C8000000000C400000FA
:103D70000000409C00000000194000000020BCBE74
:103D80000000000034400000BFC91B8E000000048A
:103D9000B5400000504BCFD06607E2CF01000000D5
:103DA0006C4100003E8251AADFEEA7340100000002
:103DB000D9420000DCB5A0E23A301F97FFFFFFFFB9
:103DC000B4450000FD25A0C8E9A3C14FFFFFFFFFD8
:103DD000FF3F00000000008000000000FF3F0000E7
:103DE0000000008000000000243E000800000020C9
:103DF00020000000C4010008443E0008200000200C
:103E000070090000E00100081C00000043000000F1
:103E1000F8FFFFFF0C0000000E0000000F00000084
:103E20002E0000000000000000007AC40000000026
:103E30000000000001000000100000000000000071
:043E40000024F40066
:040000050800018965
:00000001FF
